:10212500257300B5B1C7B0D1B9C1A6C9E8B6A8D164
:10213500B9C1A6C9E8B6A8C1F7C1BF4552524F52A9
:10214500303132333435004D503130303643202074
:102155000056312E30302000326E193710CF0C9CCE
:102165000A1608680734064E059A050B04950433CC
:1021750003E00399035C032602F702CD02A702855B
:102185000266024A02310219020401F001DE01CDA4
:1021950001BD01AE01A101940187017C01710167B7
:1021A500015D0154014B0143013B0133012C012524
:1021B500011F01180112010D0107010200FD00F8C0
:1021C50000F300EF00EA00E600E200DE00DA00D7E7
:1021D50000D300D000CC00C900C600C300C000BDBC
:1021E50000BB00B800B500B300B000AE00AC00A95C
:1021F50000A700A500A300A1009F009D009B0099DA
:1022050000970096009400920091008F008E008C3C
:10221500008B00890088008600850084008200818B
:10222500B5F7D5FBC1F7C1BFC9E8B6A8C1F7C1BFAE
:10223500B2E2B6A8C1F7C1BFB5F7D5FBD6B5D0B4E4
:10224500C8EBB5F7D5FBD6B5D0B4C8EBC8A1CFFB65
:10225500B4EDCEF3B5F7D5FBD6B5B1D8D0EBCEAA54
:102265003130B5C4D5FB2020B1B6B3F6B3A7D6B58A
:10227500BBD6B8B4C8B7B6A85220C8A1CFFB532067
:10228500B3F6B3A7D6B5BBD6B8B4B3C9B9A6B3F63A
:0C229500B3A7D6B5BBD6B8B4C8A1CFFB28
:101D1800410000004102C3004102C2004202F60035
:101D2800004200A300004200010000C10961000058
:101D3800C100C1814001C0804101C0804100C18112
:101D48004001C0804100C1814000C1814001C08084
:101D58004101C0804100C1814000C1814001C08073
:101D68004100C1814001C0804101C0804100C18162
:101D78004001C0804100C1814000C1814001C08054
:101D88004100C1814001C0804101C0804100C18142
:101D98004000C1814001C0804101C0804100C18133
:101DA8004001C0804100C1814000C1814001C08024
:101DB8004101C0804100C1814000C1814001C08013
:101DC8004100C1814001C0804101C0804100C18102
:101DD8004000C1814001C0804101C0804100C181F3
:101DE8004001C0804100C1814000C1814001C080E4
:101DF8004100C1814001C0804101C0804100C181D2
:101E08004001C0804100C1814000C1814001C080C3
:101E18004101C0804100C1814000C1814001C080B2
:101E28004100C1814001C0804101C0804100C181A1
:101E380040610001C200C0C101C30302C2C6060757
:101E4800C705C5C404CC0C0DCD0FCFCE0E0ACACB26
:101E58000BC90908C8D81819D91BDBDA1A1EDEDF26
:101E68001FDD1D1CDC14D4D515D71716D6D21213B6
:101E7800D311D1D010F03031F133F3F23236F6F716
:101E880037F53534F43CFCFD3DFF3F3EFEFA3A3B66
:101E9800FB39F9F83828E8E929EB2B2AEAEE2E2F46
:101EA800EF2DEDEC2CE42425E527E7E62622E2E3F6
:101EB80023E12120E0A06061A163A3A26266A6A736
:101EC80067A56564A46CACAD6DAF6F6EAEAA6A6BA6
:101ED800AB69A9A86878B8B979BB7B7ABABE7E7FA6
:101EE800BF7DBDBC7CB47475B577B7B67672B2B336
:101EF80073B17170B0509091519353529296565756
:101F080097559594549C5C5D9D5F9F9E5E5A9A9BE5
:101F18005B99595898884849894B8B8A4A4E8E8FC5
:101F28004F8D4D4C8C448485458747468682424375
:051F380083418180409F
:100E2B00E49002FBF0A312165B00000000E49003B9
:100E3B0000F0A3F0A3F0A3F0A3F0A3F0A3F0A3F0B2
:100E4B009000A704F090030B74FFF0A37421F0A3A0
:100E5B007425F0A374FFF0A37421F0A37445F07B09
:100E6B00017A0079A812177590030B74FFF0A37425
:100E7B0021F0A37425F0A374FFF0A37421F0A374E5
:100E8B004CF07B017A0079AE12177590030B74FF4F
:100E9B00F0A37421F0A37425F0A374FFF0A37421C5
:100EAB00F0A37456F07B017A0079B6121775900097
:100EBB00BCE4F0A3743CF0A37403F0A374E7F0E478
:100ECB009000C0F0F58EF58A758CCFD28CD2A975B7
:100EDB008921758BFD758DFD7598D8F587D2AFD2AD
:100EEB008ED2ACFE7F37FD7B017A00796C12168CAB
:100EFB007E007F377D007B017A00793512168CC21C
:100F0B00A7122BC0121A75900000E0640160030257
:100F1B000FE0F09002C3E0D39400748094805003F0
:100F2B00020FDBA3E0FF9000A7E06F6003020FDB73
:100F3B007B017A0279C49002C3E024FEFD1228786B
:100F4B00AC06AD079002C3E024C2F582E43402F58F
:100F5B0083E0FE9002C3E024C3F582E43402F58300
:100F6B00E0FBEB6D7002EC6E70669002C4E09000DB
:100F7B006CF09002C5E090006DF0E0FD14601D2454
:100F8B00FE601524FE601314600C24DB70169000B9
:100F9B00A07403F080168004800280009000A0747F
:100FAB0004F080087F0112265C020F129000A0E073
:100FBB00FF7E00786E7C007D017B017A0279C61280
:100FCB00143890006DE0FF7B017A00796E120026D9
:100FDB00E49002C3F0900305E004F0700690030464
:100FEB00E004F0C3900305E094F4900304E0940153
:100FFB0050030211F6E4F0A3F07F80122BEBE49088
:10100B0002FAF09002FAE0FFC394087480948050C7
:10101B0011EF90212893FF122BF99002FAE004F0C4
:10102B0080E17F90122BEBE49002FAF09002FAE051
:10103B00FFC39408748094805011EF90213093FF7C
:10104B00122BF99002FAE004F080E17F88122BEB6F
:10105B00E49002FAF09002FAE0FFC39408748094D3
:10106B00805011EF90213893FF122BF99002FAE088
:10107B0004F080E17F84122BEB900001E0FEA3E0F3
:10108B00FF7C037DE81214B6EF2430FF122BF9908E
:10109B000001E0FEA3E0FF7C037DE81214B67E00A6
:1010AB007F64CFCDCFCECCCE1214B6EF2430FF124F
:1010BB002BF97F2E122BF9900001E0FEA3E0FF7CB1
:1010CB00007D641214B67E007F0ACFCDCFCECCCE7E
:1010DB001214B6EF2430FF122BF9900001E0FEA39F
:1010EB00E0FF7C007D0A1214B6ED2430FF122BF9C1
:1010FB007F4D122BF97F50122BF97F61122BF97F49
:10110B0094122BEB9000A5E0FEA3E0FF7C007D6426
:10111B001214B6EF2430FF122BF99000A5E0FEA3BA
:10112B00E0FF7C007D641214B67E007F0ACFCDCF2A
:10113B00CECCCE1214B6EF2430FF122BF97F2E1229
:10114B002BF99000A5E0FEA3E0FF7C007D0A1214B2
:10115B00B6ED2430FF122BF97F96122BEB7F20126A
:10116B002BF97F4D122BF97F50122BF97F61122B2C
:10117B00F97F8C122BEB9002F8E0FEA3E0FF7C03CF
:10118B007DE81214B67E007F64CFCDCFCECCCE12CD
:10119B0014B6EF2430FF122BF99002F8E0FEA3E017
:1011AB00FF7C007D641214B67E007F0ACFCDCFCEBC
:1011BB00CCCE1214B6EF2430FF122BF97F2E122B4C
:1011CB00F99002F8E0FEA3E0FF7C007D0A1214B652
:1011DB00ED2430FF122BF97F6D122BF97F6C122B44
:1011EB00F97F2F122BF97F6D122BF9122978EF242F
:1011FB00F5601514602014601414602714602E24FD
:10120B00057033120895802E121F3E80291223EC95
:10121B009000A5E480071222A19002F8EEF0A3EF54
:10122B00F08013122B49E49000C0F08009122B2898
:10123B009000C07401F0900303E004F0700690037B
:10124B0002E004F0C3900303E09464900302E09483
:10125B000050030212EAE4F0A3F09002FCE0F8A3C2
:10126B00E0F9A3E0FAA3E0FBC000C001C002C00399
:10127B001229D0E4FCFDD003D002D001D000EB2F1B
:10128B00FFEA3EFEED39FDEC38FC9002FC12164FE6
:10129B00900301E004F07006900300E004F090036B
:1012AB0000E0FEA3E0FFC39432EE94004031AB07A5
:1012BB00AA06E4F9F89002FCE0FCA3E0FDA3E0FE33
:1012CB00A3E0FF1215AC900001EEF0A3EFF090023B
:1012DB00FC12165B00000000E4900300F0A3F090FA
:1012EB0000C0E064016003020F129002FBE0FF7E7E
:1012FB00006401700E900307E004F0700690030683
:10130B00E004F0EF4E7028900001E0FEA3E0FF7CBC
:10131B00007D0A1214B6C39000A6E09F9000A5E0D2
:10132B009E500C122B499002FB7401F0020F12908D
:10133B0002FBE064016003020F12C3900307E09409
:10134B0010900306E094275003020F12122B28E48F
:0D135B009002FBF0900306F0A3F0020F12C9
:1029D000122A6BEFD394037480948040051F1F1F4D
:1029E0008002E4FFE4FCFDFE90030812164F900302
:1029F00008E0FCA3E0FDA3E0FEA3E0FFE47B827A15
:102A000005F9F812152190030812164FE47BFFFA1E
:102A1000F9F8900308E0FCA3E0FDA3E0FEA3E0FFCB
:032A20000215ACF0
:1023EC00E4900309F090030BF0A3F07F98122BEB11
:1023FC007F50122BF97F73122BF97F65122BF97F0B
:10240C0074122BF97F94122BEB7F20122BF97F2067
:10241C00122BF97F20122BF97F20122BF97F9412AB
:10242C002BEB900309E0D3940274809480507812C3
:10243C00292090030AEFF0C3940A7480948050E230
:10244C00E02430FF122BF9900309E0146020146093
:10245C003B2402704990030AE075F064A4FFAEF0CF
:10246C0090030CE02FF090030BE03EF080309003D3
:10247C000AE075F00AA4FFAEF090030CE02FF09088
:10248C00030BE03EF07F2E122BF9801290030AE032
:10249C00FF90030CE02FF090030BE03400F090035E
:1024AC0009E004F002242E9000BCE0FEA3E0FF90B3
:1024BC00030BE0FCA3E0FDD39FEC9E50319000A5F4
:1024CC00ECF0A3EDF07F007E80122B079000A5E0CE
:1024DC00FD7F007E80122AE39000A5A3E0FD7F0122
:1024EC007E80122AE37D057F98122ABD80297F9871
:1024FC00122BEBE4900308F0900308E0FFD3940454
:10250C00748094805011EF90214093FF122BF9901E
:0D251C000308E004F080E19000A5A3E0FFBB
:01252900228F
:1022A100E4900309F090030BF0A3F07F98122BEB5D
:1022B1007F4C122BF97F73122BF97F65122BF97F5B
:1022C10074122BF97F8C122BEB7F20122BF97F20BC
:1022D100122BF97F20122BF97F20122BF97F8C1200
:1022E1002BEB900309E0D394027480948050781210
:1022F100292090030AEFF0C3940A7480948050E27D
:10230100E02430FF122BF9900309E01460201460DF
:102311003B2402704990030AE075F064A4FFAEF01B
:1023210090030CE02FF090030BE03EF0803090031F
:102331000AE075F00AA4FFAEF090030CE02FF090D4
:10234100030BE03EF07F2E122BF9801290030AE07E
:10235100FF90030CE02FF090030BE03400F09003AA
:1023610009E004F00222E39000BEE0FEA3E0FF904A
:10237100030BE0FCA3E0FDD39FEC9E503C9002F8E0
:10238100ECF0A3EDF07F007E82122B079002F8E0C3
:10239100FD7F007E82122AE39002F8A3E0FD7F0117
:1023A1007E82122AE39002F8E0FEA3E0FF12252AC2
:1023B1007D057F98122ABD80297F98122BEBE4902E
:1023C1000308F0900308E0FFD394047480948050D4
:1023D10011EF90214093FF122BF9900308E004F0D4
:0A23E10080E19002F8E0FEA3E0FFA7
:0123EB0022CF
:052ABD0090030DEDF097
:102AC200122BEBE490030EF090030DE0FFA3E0D392
:102AD2009F500D7F20122BF990030EE004F080E846
:012AE20022D1
:101A75007F80122BEBE490032EF090032EE0FFC342
:101A85009408748094805011EF90212893FF122BB5
:101A9500F990032EE004F080E17F90122BEBE490A7
:101AA500032EF090032EE0FFC394087480948050B9
:101AB50011EF90213093FF122BF990032EE004F0E3
:101AC50080E17F96122BEB7F20122BF97F4D122B95
:101AD500F97F50122BF97F61122BF97F88122BEBBE
:101AE500E490032EF090032EE0FFC39408748094D5
:101AF500805011EF90213893FF122BF990032EE0BF
:101B050004F080E17F8E122BEB7F6D122BF97F6C39
:101B1500122BF97F2F122BF97F6D122BF97F94125F
:101B25002BEB7F007E80122B6AEF9000A5F0A3E4DB
:101B3500F07F017E80122B6A9000A5E0FEA3E04FA6
:101B4500FF9000A5EEF0FEA3EFF04E60159000BCEF
:101B5500E0FEA3E0FFD39000A6E09F9000A5E09EE5
:101B6500402F9000BCE0FFA3E09000A5CFF0A3EFCD
:101B7500F07F007E80122B079000A5E0FD7F007EA0
:101B850080122AE39000A5A3E0FD7F017E80122A42
:101B9500E39000A5E0FEA3E0FF7C007D641214B68F
:101BA500EF2430FF122BF99000A5E0FEA3E0FF7CA7
:101BB500007D641214B67E007F0ACFCDCFCECCCE89
:101BC5001214B6EF2430FF122BF97F2E122BF99049
:101BD50000A5E0FEA3E0FF7C007D0A1214B6ED240B
:101BE50030FF122BF97F8C122BEB7F007E82122B9C
:101BF5006AEF9002F8F0A3E4F07F017E82122B6A6F
:101C05009002F8E0FEA3E04FFF9002F8EEF0FEA38D
:101C1500EFF04E60159000BEE0FEA3E0FFD390020A
:101C2500F9E09F9002F8E09E402F9000BEE0FFA3F0
:101C3500E09002F8CFF0A3EFF07F007E82122B0731
:101C45009002F8E0FD7F007E82122AE39002F8A35D
:101C5500E0FD7F017E82122AE39002F8E0FEA3E018
:101C6500FF7C037DE81214B67E007F64CFCDCFCE16
:101C7500CCCE1214B6EF2430FF122BF99002F8E007
:101C8500FEA3E0FF7C007D641214B67E007F0ACFC0
:101C9500CDCFCECCCE1214B6EF2430FF122BF97F68
:101CA5002E122BF99002F8E0FEA3E0FF7C007D0ADE
:101CB5001214B6ED2430FF122BF97F9E122BEB7F09
:101CC50053122BF97F54122BF97F4F122BF97F50AA
:101CD500122BF97F007E84122B6A9000A7EFF0602B
:101CE50009D394207480948040199000A77401F062
:101CF5007F007E84122B079000A7E0FD7F007E8485
:101D0500122AE37F01122BD99002F8E0FEA3E0FF2F
:031D150002252A7A
:10089500E490030AF0A3F0A3F0A3F0A3F0A3F09073
:1008A50003127486F0A3E4F0C2AF7F01122BEB9024
:1008B500030874FFF0900308C3748094805005E02A
:1008C50014F080F19002F8E0FEA3E0FF7C007D0AC1
:1008D5001214B6ED4C700302098B7F80122BEBE4EA
:1008E500900308F0900308E0FFC39404748094809B
:1008F5005011EF90225593FF122BF9900308E00455
:10090500F080E17F90122BEBE4900308F090030850
:10091500E0FFC3940C748094805011EF902259939A
:10092500FF122BF9900308E004F080E17F88122B79
:10093500EBE4900308F0900308E0FFC3940A748089
:1009450094805011EF90226593FF122BF9900308C4
:10095500E004F080E17F8B122BEB7FCA122BF97F2D
:10096500FD122BF97F02122BD97F01122BEB90037D
:100975000874FFF0900308C3748094805005E01458
:10098500F080F1020E257F82122BEBE4900308F034
:10099500900308E0FFC39408748094805011EF9091
:1009A500222593FF122BF9900308E004F080E17FE4
:1009B50090122BEBE4900308F0900308E0FFC3943A
:1009C50008748094805011EF90222D93FF122BF91B
:1009D500900308E004F080E17F88122BEBE490039C
:1009E50008F0900308E0FFC39408748094805011C8
:1009F500EF90223593FF122BF9900308E004F08065
:100A0500E17F95122BEB9002F8E0FEA3E0FF7C005E
:100A15007D641214B6EF2430FF122BF99002F8E032
:100A2500FEA3E0FF7C007D641214B67E007F0ACF32
:100A3500CDCFCECCCE1214B6EF2430FF122BF97FDA
:100A45002E122BF99002F8E0FEA3E0FF7C007D0A50
:100A55001214B6ED2430FF122BF97F8D122BEB907B
:100A6500030AE0D39403748094804003020B501270
:100A75002920900309EFF0640E7003020E0BC3EFFB
:100A8500940A748094804003020B0FE02430FF1217
:100A95002BF990030AE014602214603D146053247E
:100AA500037061900309E0FF7E007C037DE812146A
:100AB500A490030EEEF0A3EFF08049900309E075D2
:100AC500F064A4FFAEF090030FE02FF090030EE06A
:100AD5003EF07F2E122BF9802B900309E075F00A6A
:100AE500A4FFAEF090030FE02FF090030EE03EF070
:100AF5008012900309E0FF90030FE02FF090030EA2
:100B0500E03400F090030AE004F0900309E0640C7F
:100B15006003020A647F8D122BEB7F20122BF97F75
:100B250020122BF97F20122BF97F20122BF97F2021
:100B3500122BF97F20122BF97F8D122BEBE49003FA
:100B45000AF090030EF0A3F0020A64E4900308F0A3
:100B5500900308E0FFC3946474809480505EEF7541
:100B6500F002A42400FFE5F03486FE900312F0A302
:100B7500EFF0122B6AEF900314F0A3E4F090031347
:100B8500E02401FF900312E03400FE122B6A90036B
:100B950015E02FF0900314E03400F0E0FEA3E0FF31
:100BA500900308E025E02416F582E43403F583EE8E
:100BB500F0A3EFF0900308E004F080949002F8E0D1
:100BC500FEA3E0FFC39401EE94004016EF24FFFF5F
:100BD500EE34FFFE7C007D0A1214B690030BEFF095
:100BE5008005E490030BF09002F8E0FEA3E0FF7CA3
:100BF500007D0A1214A490030CEEF0A3EFF090030D
:100C05000BE025E02416F582E43403F583E0FEA32A
:100C1500E0FFE4FD90032A12164F90030EE0FEA3B9
:100C2500E0FFE4FCFD90032AE0F8A3E0F9A3E0FA75
:100C3500A3E0FB12152190032A12164F90030CE036
:100C4500FEA3E0FBAA06E4F9F890032AE0FCA3E082
:100C5500FDA3E0FEA3E0FF1215AC900310EEF0A398
:100C6500EFF090030BE025E02416F582E43403F55C
:100C750083EEF0A3EFF07F98122BEB900310E0FECC
:100C8500A3E0FF7C277D101214B6EF2430FF122B52
:100C9500F9900310E0FEA3E0FF7C277D101214B647
:100CA5007E037FE8CFCDCFCECCCE1214B6EF243065
:100CB500FF122BF9900310E0FEA3E0FF7C037DE813
:100CC5001214B67E007F64CFCDCFCECCCE1214B633
:100CD500EF2430FF122BF9900310E0FEA3E0FF7C18
:100CE500007D641214B67E007F0ACFCDCFCECCCE68
:100CF5001214B6EF2430FF122BF9900310E0FEA377
:100D0500E0FF7C007D0A1214B6ED2430FF122BF9AA
:100D1500122920900309EFF0640F6003020DC4FF50
:100D25007E86122B07E4900308F0900308E0C39435
:100D350064748094805054E0FD75F002A42400FF93
:100D4500E5F03486FE900312F0A3EFF0ED25E024E4
:100D550016F582E43403F583E0FDA3E0900314CD9A
:100D6500F0A3EDF0900314E0FD122AE3900313E0E5
:100D75002401FF900312E03400FE900314A3E0FD6C
:100D8500122AE3900308E004F0809F7F98122BEB72
:100D9500E4900308F0900308E0FFC3940A7480947C
:100DA500805011EF90223D93FF122BF9900308E03C
:100DB50004F080E17F02122BD99003097414F0909E
:100DC5000309E0640E70347F98122BEBE49003085E
:100DD500F0900308E0FFC3940E748094805011EFE7
:100DE50090224793FF122BF9900308E004F080E16D
:100DF5007F05122BD99003097414F0900309E06460
:100E0500146003020D157F01122BEB90030874FF8C
:100E1500F0900308C3748094805005E014F080F1CD
:050E2500121A75D2AFA6
:010E2A0022A5
:101F3E0090030A7486F0A3E4F07F01122BEB90035A
:101F4E000874FFF0900308C3748094805005E01469
:101F5E00F080F17F92122BEBE4900308F0900308CF
:101F6E00E0FFC3940A748094805011EF90226F9317
:101F7E00FF122BF9900308E004F080E17F98122BFA
:101F8E00EBE4900308F0900308E0FFC3940674801E
:101F9E0094805011EF90227993FF122BF990030841
:101FAE00E004F080E17F9D122BEBE4900308F090AB
:101FBE000308E0FFC39406748094805011EF9022C2
:101FCE007F93FF122BF9900308E004F080E11229B1
:101FDE0020900309EFF0640F60030220A7FF7E86B6
:101FEE00122B07E4900308F0900308E0C394647486
:101FFE008094805056E0FD75F002A42400FFE5F0B9
:10200E003486FE90030AF0A3EFF0ED25E0245DF593
:10201E0082E43421F583E493FD74019390030CCD97
:10202E00F0A3EDF090030CE0FD122AE390030BE019
:10203E002401FF90030AE03400FE90030CA3E0FDA0
:10204E00122AE3900308E004F0809D7F01122BEB2F
:10205E0090030874FFF0900308C3748094805005B9
:10206E00E014F080F17F90122BEBE4900308F090D7
:10207E000308E0FFC3940E748094805011EF9022F9
:10208E008593FF122BF9900308E004F080E17F05A1
:10209E00122BD99003097415F0900309E0640E70A9
:1020AE004E7F01122BEB90030874FFF0900308C3D0
:1020BE00748094805005E014F080F17F90122BEB29
:1020CE00E4900308F0900308E0FFC3940E7480942C
:1020DE00805011EF90229393FF122BF9900308E09A
:1020EE0004F080E17F05122BD99003097415F0904E
:1020FE000309E064156003021FDC7F01122BEB90D5
:10210E00030874FFF0900308C3748094805005E0B8
:07211E0014F080F1021A75B4
:10002600900309EBF0A3EAF0A3E9F0900308EFF0E0
:10003600E490030CF0A3F0A3F0A3F0A3F0A3F0A3C5
:10004600F0EF1470030207B524FE70030204C824FF
:10005600FE70030206781470030201FE24DB6003BF
:10006600020894900309E0FBA3E0FAA3E0F9121456
:100076005E640E6003020894900001121477640116
:100086006003020894900002121477600302088A43
:100096009000A7E0900035F0900308E0900036F05D
:1000A6009000697420F090030EE0FF04F074372F7F
:1000B600F582E43400F583740EF090030EE0FF043D
:1000C600F074372FF582E43400F5837401F0900361
:1000D6000EE0FF04F074372FF582E43400F58374E4
:1000E60001F090030EE0FF04F074372FF582E4343C
:1000F60000F583E4F090030EE0FF04F074372FF56B
:1001060082E43400F583E4F090030EE0FF04F0741B
:10011600372FF582E43400F5837403F090030EE084
:10012600FF04F074372FF582E43400F583E4F09091
:10013600030EE0FF04F074372FF582E43400F583F4
:100146007406F090030EE02437F9E43400A801FCAD
:100156007D017B017A0079A87E007F061214389013
:10016600030EE02406F0E0FF04F074372FF582E476
:100176003400F5837401F090030EE0FF04F0743749
:100186002FF582E43400F5837408F090030EE02422
:1001960037F9E43400A801FC7D017B017A0079AED1
:1001A6007E007F0812143890030EE02408F0E0FF6A
:1001B60004F074372FF582E43400F5837402F0906E
:1001C600030EE0FF04F074372FF582E43400F58364
:1001D6007406F090030EE02437F9E43400A801FC1D
:1001E6007D017B017A0079B67E007F061214389075
:1001F600030EE02406020848900309E0FBA3E0FA98
:10020600A3E0F9900001121477FD12145EFFED9041
:10021600030FCFF0A3EFF0900002121477FE9000C8
:1002260003121477FDEDFF900311EEF0A3EFF090AB
:10023600030FE07004A3E06401600302031A900355
:1002460011E0FEA3E0FFD39400EE940050030208F1
:1002560081D3EF9420EE940040030208819000A71A
:10026600E0FF900311E07003A3E06F7003020894AF
:100276007F007E84122B07900311A3E0FD7F007E92
:1002860084122AE39000A7E0900035F0900308E07E
:10029600900036F09000697404F090030EE0FF04BD
:1002A600F074372FF582E43400F583E4F090030E02
:1002B600E0FF04F074372FF582E43400F58374010F
:1002C600F090030EE0FF04F074372FF582E434005B
:1002D600F583E4F0900311A3E0FF90030EE0FE0423
:1002E600F074372EF582E43400F583EF12284C9033
:1002F600030CEEF0A3EFF09002C2E02403F9E4341D
:1003060000A8017A03790C1228C8900311A3E09083
:1003160000A7F02290030FE07004A3E064026003DC
:100326000203EA900311E0FEA3E0FFD39400EE94EB
:100336000050030203E79000BCE0FCA3E0FDD3EF0E
:100346009DEE9C40030203E79000A5EEF0A3EFF0BC
:100356007F007E80122B079000A5E0FD7F007E8047
:10036600122AE39000A5A3E0FD7F017E80122AE316
:100376009000A7E0900035F0900308E0900036F07A
:100386009000697404F090030EE0FF04F074372FB8
:10039600F582E43400F583E4F090030EE0FF04F008
:1003A60074372FF582E43400F5837402F09000A5CB
:1003B600E0FCA3E0FDECFF90030EE0FE04F07437D2
:1003C6002EF582E43400F583EFF0AF0590030EE0DE
:1003D600FE04F074372EF582E43400F583EF02084C
:1003E6004802088190030FE07004A3E064036003F1
:1003F6000204C5900311E0FEA3E0FFD39400EE943F
:100406000050030204C29000BEE0FCA3E0FDD3EF5F
:100416009DEE9C40030204C29002F8EEF0A3EFF0BA
:100426007F007E82122B079002F8E0FD7F007E821D
:10043600122AE39002F8A3E0FD7F017E82122AE3EE
:100446009002F8E0FEA3E0FF12252A9000A7E090B4
:100456000035F0900308E0900036F09000697404CF
:10046600F090030EE0FF04F074372FF582E43400B9
:10047600F583E4F090030EE0FF04F074372FF58265
:10048600E43400F5837403F09002F8E0FCA3E0FD89
:10049600ECFF90030EE0FE04F074372EF582E43490
:1004A60000F583EFF0AF0590030EE0FE04F074371D
:1004B6002EF582E43400F583EF0208480208810233
:1004C600088A900309E0FBA3E0FAA3E0F990000193
:1004D600121477FD12145EFFED90030FCFF0A3EF19
:1004E600F0900002121477FE900003121477FDEDCF
:1004F600FF900311EEF0A3EFF090030FE07004A35A
:10050600E06402706D900311E07004A3E064017072
:100516005E9000A7E0900035F0900308E09000366A
:10052600F09000697403F090030EE0FF04F0743756
:100536002FF582E43400F5837402F09000A5E0FC08
:10054600A3E0FDECFF90030EE0FE04F074372EF5F9
:1005560082E43400F583EFF0AF0590030EE0FE046D
:10056600F074372EF582E43400F583EF0208480272
:10057600088190030FE07004A3E06403706D90039C
:1005860011E07004A3E06401705E9000A7E09000A3
:1005960035F0900308E0900036F09000697403F09F
:1005A60090030EE0FF04F074372FF582E43400F573
:1005B600837402F09002F8E0FCA3E0FDECFF9003E8
:1005C6000EE0FE04F074372EF582E43400F583EF76
:1005D600F0AF0590030EE0FE04F074372EF582E4CA
:1005E6003400F583EF02084802088190030FE0709B
:1005F60004A3E064047078900311E07004A3E0643F
:100606000170699000A7E0900035F0900308E09033
:100616000036F09000697403F090030EE0FF04F0DA
:1006260074372FF582E43400F5837402F0900001EC
:10063600E0FEA3E0FF7C007D0A1214B6AC06AD070F
:10064600ECFF90030EE0FE04F074372EF582E434DE
:1006560000F583EFF0AF0590030EE0FE04F074376B
:100666002EF582E43400F583EF0208480208810281
:10067600088A900309E0FBA3E0FAA3E0F9900001E1
:10068600121477FD12145EFFED90030FCFF0A3EF67
:10069600F0900002121477FE900003121477FDED1D
:1006A600FF900311EEF0A3EFF090030FE07004A3A8
:1006B600E0640160030207B2900311E0F47002A344
:1006C600E0706F122B289000C07401F09000A7E034
:1006D600900035F0900308E0900036F090006974C1
:1006E60004F090030EE0FF04F074372FF582E43433
:1006F60000F583E4F090030EE0FF04F074372FF565
:1007060082E43400F5837401F090030EE0FF04F0F8
:1007160074372FF582E43400F58374FFF090030EEE
:10072600E0FF04F074372FF582E43400F583E40229
:100736000848900311E07002A3E0706D122B49E4A3
:100746009000C0F09000A7E0900035F0900308E01C
:10075600900036F09000697404F090030EE0FF04F8
:10076600F074372FF582E43400F583E4F090030E3D
:10077600E0FF04F074372FF582E43400F58374014A
:10078600F090030EE0FF04F074372FF582E4340096
:10079600F583E4F090030EE0FF04F074372FF58242
:1007A600E43400F583E402084802088102088A90CE
:1007B6000309E0FBA3E0FAA3E0F990000112147725
:1007C600FD12145EFFED90030FCFF0A3EFF0900043
:1007D60002121477FE900003121477FDEDFF9003CA
:1007E60011EEF0A3EFF090030FE07004A3E06401B4
:1007F600600302088A900311E07004A3E0640170AC
:100806007A9000A7E0900035F0900308E09000365B
:10081600F09000697402F090030EE0FF04F0743764
:100826002FF582E43400F5837401F09000C0E0FFF8
:1008360090030EE0FE04F074372EF582E43400F5E2
:1008460083EF12284C90030CEEF0A3EFF09002C257
:10085600E02403F9E43400A801FC7D017B017A035E
:10086600790C7E007F021214389002C2E02402F056
:100876007B017A007903E0FD0228E3900308E0FD9E
:0E0886007F038007900308E0FD7F0212265CCE
:010894002241
:03002300022A238B
:102A2300C0E0C083C082C0D075D000C00730982DED
:102A3300C2989002C3E0FF04F074C42FF582E4341B
:102A430002F583E599F09002C3E0C3943274809455
:102A5300804002E4F0758A00758CCFD28CD007D009
:082A6300D0D082D083D0E03214
:03000B0002000EE2
:10000E00C0E0C083C082C28C9000007401F0D08228
:05001E00D083D0E032A8
:1028C800FC7D017B017E007F021214389002C2E079
:0B28D8002402F07B017A007903E0FD90
:0B28E300900318EBF0A3EAF0A3E9F06B
:1028EE00C2ACE4FFEFC39D5026900318E0FBA3E0BB
:1028FE00FAA3E0F98F8275830012147730D004D2D8
:10290E009B8002C29BF5993099FDC2990F80D5D25A
:01291E00AC0C
:01291F002295
:0A265C00900314EDF0900313EFF06B
:10266600E4900315F0A3F0A3F0EF6401701E900050
:10267600A7E0900035F0900314E02480900036F037
:102686009000697401F0900037022720900313E050
:1026960064027054A3E0FF14603024FE602C24FE14
:1026A600602814602524DB600302273E9000A7E023
:1026B600900035F0EF2480A3F09000697402F0904A
:1026C6000037740EF0A3740280509000A7E09000CB
:1026D60035F0900314E02480900036F09000697481
:1026E60001F0900037048032900313E064037048D1
:1026F600A3E0FF24FD600B24FE600714600424059C
:1027060070369000A7E0900035F0EF2480A3F0909B
:1027160000697401F0900037740312284C90031579
:10272600EEF0A3EFF09002C2E02403F9E43400A82F
:08273600017A0379151228C88D
:01273E002278
:10284C00F0900069E02402FFE433FE78037C007D05
:10285C00017B017A007935121438900069E024026A
:0C286C00FF9002C2F0FD7B017A007903AE
:0E287800900318EBF0A3EAF0A3E9F0A3EDF053
:102886007FFF7DFF90031BE0FE14F0EE602F9003A8
:1028960018E0FBA3E475F00112150BA9F0FA121467
:1028A6005E6FFE24C1F582E43400F583E06DFF74AB
:1028B600C22EF582E43401F583E0FD80C7EFFEED1C
:0128C600FF12
:0128C70022EE
:0C2C0700C2AF53E71885E7E743E78022DF
:092C130053E77FE4F5E6D2AF229D
:102B6A00AD07AC06ECF5E3EDF5E453E5F843E50112
:102B7A00122C0775E64675E6B900122C13AFE2224D
:102B0700E4FDEE54FEFCF5E3E4F5E453E5F843E5B4
:102B170003122C0775E64675E6B900122C137F01E0
:012B2700228B
:102AE300AB07AA06EAF5E3EBF5E453E5F843E502A1
:102AF300AF058FE2122C0775E64675E6B900122C76
:042B0300137F012219
:072BA700C2A3D2A47580FF58
:102BAE00E4780DF6D2A5780DA680C2A5E654807005
:012BBE00F323
:012BBF0022F3
:0E2BEB00122BA7C2A5C2A48F80D2A5C2A5221C
:0E2BF900122BA7D2A3C2A48F80D2A5C2A52200
:102BC0007F30122BEB7F0F122BEB7F01122BEB7F51
:092BD00006122BEB7F0C022BEB2B
:102B2800E4FBFD7F521227CB7F9E122BEB7F2012F6
:102B38002BF97F52122BF97F55122BF97F4E022B5E
:012B4800F993
:102B4900E4FBFD7F531227CB7F9E122BEB7F5312A1
:102B59002BF97F54122BF97F4F122BF97F50022B3F
:012B6900F972
:08252A0090032FEEF0A3EFF087
:102532009003327486F0A3E4F0C3EF9401EE9400AA
:10254200401C900330E024FFFF90032FE034FFFE95
:102552007C007D0A1214B6900331EFF08005E490FE
:102562000331F0900331E075F002A4FFAEF0900366
:1025720033E02FF0900332E03EF0E0FEA3E0FF12E2
:102582002B6AEF900334F0A3E4F0900333E02401CC
:10259200FF900332E03400FE122B6A900335E02FE5
:1025A200F0900334E03400F0900331E02401FFE4C2
:1025B20033FE900334E0FCA3E0FD1214A4E4FCFD1E
:1025C20090033812164F900338E0FCA3E0FDA3E01D
:1025D200FEA3E0FFE47B0AFAF9F812152190033812
:1025E20012164F900338E0FCA3E0FDA3E0FEA3E047
:1025F200FFC006C00790032FE0FEA3E0FBAA06E49B
:10260200F9F8D007D0061215AC90033812164FE431
:102612007FFF7EFFFDFC900338E0F8A3E0F9A3E022
:10262200FAA3E0FBD312163E5013900338A3A3E0A3
:10263200FFA3E0900336CFF0A3EFF0800874FF9081
:102642000336F0A3F0900336E0FCA3E0FDECFFAE0E
:0A26520005EDAD07FB7F460227CB24
:0B27CB0090033CEFF0A3EDF0A3EBF057
:1027D600C2A2C2A2C2A2D2A2E4FF122B8A7F64EFD7
:1027E600D394007480948050031F80F390033CE0E0
:1027F600FF122B8A7F64EFD3940074809480500379
:102806001F80F390033DE0FF122B8A7F64EFD39481
:10281600007480948050031F80F390033EE0FF1203
:102826002B8A7F64EFD394007480948050031F80BA
:10283600F3E4FF122B8A7F64EFD3940074809480B4
:0528460050031F80F3A8
:01284B00226A
:102A6B00D2B2D2B5C2B37807D8FE007400C3C2B2DB
:102A7B000000A2B5337907D2B300C2B300A2B533BD
:0B2A8B00D9F5D2B300C2B3D2B2FF22D3
:102BD900EF600E7A14795F7800D8FED9FADAF6DF59
:022BE900EF22D9
:102920007BF77F0074F0F590E590B4F00302292066
:102930007E00DEFEE590B4F00302292000EBF59066
:10294000E590FCD37D0433500C0FDDFAEBD313FB81
:1029500040EB022920D2A77E3C7DF8DDFEDEFAC2E4
:10296000A7E5906C60FB12296B0022783C7E067D07
:08297000F8DDFEDEFAD8F622C4
:102978007BF77F0074F0F590E590B4F0030229C16D
:102988007E00DEFEE590B4F0030229C100EBF5906D
:10299800E590FCD37D0433500C0FDDFAEBD313FB29
:1029A80040EB0229C1D2A77E3C7DF8DDFEDEFAC2EB
:1029B800A7E5906C60FB1229C30022783C7E067D57
:0829C800F8DDFEDEFAD8F6226C
:102B8A00EFC392A0122BA27B083392A0122BA2DBD6
:0D2B9A00F8D392A0122BA2227ECDDEFE22E7
:0300000002273F95
:0C273F00787FE4F6D8FD75812102278622
:10136800E709F608DFFA8046E709F208DFFA803E67
:1013780088828C83E709F0A3DFFA8032E309F60854
:10138800DFFA8078E309F208DFFA807088828C83BC
:10139800E309F0A3DFFA806489828A83E0A3F60870
:1013A800DFFA805889828A83E0A3F208DFFA804C4A
:1013B80080D280FA80C680D4806980F28033801021
:1013C80080A680EA809A80A880DA80E280CA80338A
:1013D80089828A83ECFAE493A3C8C582C8CCC58302
:1013E800CCF0A3C8C582C8CCC583CCDFE9DEE780D2
:1013F8000D89828A83E493A3F608DFF9ECFAA9F051
:10140800EDFB2289828A83ECFAE0A3C8C582C8CCA6
:10141800C583CCF0A3C8C582C8CCC583CCDFEADEBF
:10142800E880DB89828A83E493A3F208DFF980CC21
:1014380088F0EF60010E4E60C388F0ED2402B4041A
:101448000050B9F582EB2402B4040050AF232345C1
:0614580082239013B8731B
:10145E00BB010689828A83E0225002E722BBFE028C
:09146E00E32289828A83E49322BF
:10147700BB010CE58229F582E5833AF583E022502A
:1014870006E92582F8E622BBFE06E92582F8E22274
:0D149700E58229F582E5833AF583E493228E
:1014A400EF8DF0A4A8F0CF8CF0A428CE8DF0A42E5C
:0214B400FE2216
:1014B600BC000BBE0029EF8DF084FFADF022E4CC1A
:1014C600F875F008EF2FFFEE33FEEC33FCEE9DECE3
:1014D600984005FCEE9DFE0FD5F0E9E4CEFD22ED29
:1014E600F8F5F0EE8420D21CFEADF075F008EF2F73
:1014F600FFED33FD4007985006D5F0F222C398FD64
:051506000FD5F0EA2200
:10150B00A3F8E0C5F025F0F0E58215827002158393
:06151B00E0C838F0E822F0
:10152100E88FF0A4CC8BF0A42CFCE98EF0A42CFC69
:101531008AF0EDA42CFCEA8EF0A4CDA8F08BF0A4E7
:101541002DCC3825F0FDE98FF0A42CCD35F0FCEB46
:101551008EF0A4FEA9F0EB8FF0A4CFC5F02ECD390B
:0F156100FEE43CFCEAA42DCE35F0FDE43CFC2278
:1015700075F008758200EF2FFFEE33FECD33CDCC32
:1015800033CCC58233C5829BED9AEC99E5829840B5
:101590000CF582EE9BFEED9AFDEC99FC0FD5F0D692
:1015A000E4CEFBE4CDFAE4CCF9A88222B800C1B9BC
:1015B0000059BA002DEC8BF084CFCECDFCE5F0CBFA
:1015C000F97818EF2FFFEE33FEED33FDEC33FCEB33
:1015D00033FB10D703994004EB99FB0FD8E5E4F9EE
:1015E000FA227818EF2FFFEE33FEED33FDEC33FCDB
:1015F000C933C910D7059BE99A4007EC9BFCE99ACF
:10160000F90FD8E0E4C9FAE4CCFB2275F010EF2F13
:10161000FFEE33FEED33FDCC33CCC833C810D70713
:101620009BEC9AE899400AED9BFDEC9AFCE899F84E
:0E1630000FD5F0DAE4CDFBE4CCFAE4C8F922E1
:10163E00EB9FF5F0EA9E42F0E99D42F0E89C45F002
:01164E002279
:0C164F00ECF0A3EDF0A3EEF0A3EFF0220E
:10165B00A8828583F0D083D0821216721216721272
:10166B001672121672E473E493A3C583C5F0C58397
:10167B00C8C582C8F0A3C583C5F0C583C8C582C8D9
:01168B00223C
:10171000E508240BF582E43403F583E00508229004
:10172000030830070390030BE475F0011216CA0298
:10173000145E2000E97F2ED2008018EF540F249011
:10174000D43440D4FF30040BEF24BFB41A0050034C
:101750002461FFE50960021509050CE50C7002051E
:101760000B30070E900308E475F0011216CAEF0261
:1017700016B8022A967403D2078003E4C207F5085C
:101780009003081216E1E4F509F50BF50CE5096084
:10179000077F2012175380F5750AFFC201C200C2ED
:1017A00002C203C205C206C20812171FFF700D3025
:1017B00007057F00121764AF0CAE0B22B4255FC281
:1017C000D5C20412171FFF24D0B40A00501A75F0B6
:1017D0000A780930D50508B6FF0106C6A426F6200A
:1017E000D5047002D20380D924CFB41A00EF50047C
:1017F000C2E5D204021965D20180C6D20080C0D2EF
:101800000280BCD2D580BAD20580B47F2012175393
:101810002002077401B5090040F1121710FF1217DA
:101820005302178DD208D2068095121710FB12179B
:1018300010FA121710F94A4B700679367A1A7BFFA4
:1018400020022EE509602A7E008E82758300121424
:101850007760060EEE650A70F0C2D5EBC0E0EAC014
:10186000E0E9C0E0EE1219ACD0E0F9D0E0FAD0E047
:10187000FB12145EFF60AAEBC0E0EAC0E0E9C0E042
:10188000121753D0E02401F9D0E03400FAD0E0FB85
:10189000E50A0460DCD50AD980877BFF7A1979A82C
:1018A000D202809C791080027908C206C2088008A2
:1018B000D2D5790A8004790AC2D5E50A047002F506
:1018C0000AE4FAFDFEFF121710FC7B082001131238
:1018D0001710FD7B1030000A121710FE121710FFB0
:1018E0007B20EC3382D592D55013C3E43000069FA1
:1018F000FFE49EFEE42001039DFDE49CFCE4CBF8A4
:10190000C201EC700CCFCECDCCE824F8F870F38097
:1019100017C3EF33FFEE33FEED33FDEC33FCEB3357
:10192000FB994002FB0FD8E9EB300105F8D0E0C489
:1019300048B201C0E00AEC4D4E4F78207B0070C2E7
:10194000EAB50A0040BCC0E01219AED0F0D0E020E9
:101950000104C4C0E0C4B201C0F012173CD0F0D5FD
:10196000F0EB02178D1216EA182A5318A45817FB29
:101970004C17F74218A84F18B04418B04918104334
:0819800018B655189A46189A92
:1019880045189A471A565017FF2D18032E18262B5C
:101998001807231824201A3F2A17BF480000181ECA
:1019A8003F3F3F00790AA2D5200314300509B9103A
:1019B800020404B9080104A2D5200602500104203B
:1019C80002689202B509005034C0E07F2030031944
:1019D8007F30A20272067205500F121A05C202C2A7
:1019E80006C205C2087F30800F300503E9C0E01247
:1019F8001753300503D0E0F9D0E0B509CC3005170E
:101A08007F30B9100C1217537F583004077F788045
:101A180003B908031217533002057F2D0217537FAD
:101A2800202008F87F2B2006F322920280CF286E10
:101A3800756C6C2900D2011217103001F8C20178B8
:101A48000930D50108F60217BF2D5043495812171F
:101A5800102403B405004001E4901A51931217446E
:0D1A6800743A121744D2037509040218A441
:10168C00EF4E6012EF60010EEDBB010B89828A8375
:10169C00F0A3DFFCDEFA2289F05007F709DFFCA982
:0C16AC00F022BBFEFCF309DFFCA9F022D9
:10274B00020E2BE493A3F8E493A34003F68001F26B
:10275B0008DFF48029E493A3F85407240CC8C3338F
:10276B00C4540F4420C8834004F456800146F6DF5E
:10277B00E4800B0102040810204080901D18E47EB9
:10278B00019360BCA3FF543F30E509541FFEE49353
:10279B00A360010ECF54C025E060A840B8E493A31A
:1027AB00FAE493A3F8E493A3C8C582C8CAC583CA45
:1027BB00F0A3C8C582C8CAC583CADFE9DEE780BEFD
:011F3D0000A3
:1016B800BB010689828A83F0225002F722BBFE0111
:0216C800F3220B
:1016CA00F8E0FBA3A3E0F925F0F0E58215827002A9
:0716DA001583E0FA38F0224D
:0916E100EBF0A3EAF0A3E9F0220A
:1016EA00D083D082F8E4937012740193700DA3A38F
:1016FA0093F8740193F5828883E4737402936860A3
:06170A00EFA3A3A380DFA2
:102A9600EFB40A07740D122AA1740A309811A89986
:102AA600B8130CC2983098FDA899C298B811F630A0
:072AB60099FDC299F5992278
:00000001FF
