:10225C002573003045303130300025303258003095
:10226C004530313031303030303033303030360072
:10227C00303130380030323036000D0A003030301A
:10228C0031002530345800303030320030303033AB
:10229C0000303200464630300030303030003031C3
:1022AC00003045303200303300B5B1C7B0D1B9C1C0
:1022BC00A6C9E8B6A8D1B9C1A6C9E8B6A8C1F7C1E4
:1022CC00BF4552524F52303132333435004D5031BC
:1022DC003030364320200056312E30302000326E04
:1022EC00193710CF0C9C0A1608680734064E059A4D
:1022FC00050B0495043303E00399035C032602F7F2
:10230C0002CD02A702850266024A023102190204BA
:10231C0001F001DE01CD01BD01AE01A101940187E7
:10232C00017C01710167015D0154014B0143013BCB
:10233C000133012C0125011F01180112010D0107A8
:10234C00010200FD00F800F300EF00EA00E600E2F5
:10235C0000DE00DA00D700D300D000CC00C900C6E4
:10236C0000C300C000BD00BB00B800B500B300B096
:10237C0000AE00AC00A900A700A500A300A1009F1F
:10238C00009D009B0099009700960094009200918C
:10239C00008F008E008C008B0089008800860085E1
:1023AC00008400820081B5F7D5FBC1F7C1BFC9E835
:1023BC00B6A8C1F7C1BFB2E2B6A8C1F7C1BFB5F7A5
:1023CC00D5FBD6B5D0B4C8EBB5F7D5FBD6B5D0B4E4
:1023DC00C8EBC8A1CFFBB4EDCEF3B5F7D5FBD6B5A2
:1023EC00B1D8D0EBCEAA3130B5C4D5FB2020B1B6D4
:1023FC00B3F6B3A7D6B5BBD6B8B4C8B7B6A85220F7
:10240C00C8A1CFFB5320B3F6B3A7D6B5BBD6B8B48F
:10241C00B3C9B9A6B3F6B3A7D6B5BBD6B8B4C8A1E1
:06242C00CFFB00000000E0
:102E680041000000410127004101260042015A00AB
:0D2E78000042010700004200010000C109F6
:100F2200E490015FF0A312177C00000000E490013E
:100F320064F0A3F0A3F0A3F0A3F0A3F0A3F0A3F056
:100F4200A3F090010B04F090018074FFF0A37422CF
:100F5200F0A3745CF0A374FFF0A37422F0A374D224
:100F6200F07B017A01790C1218AC90018074FFF0C9
:100F7200A37422F0A3745CF0A374FFF0A37422F0B4
:100F8200A374D9F07B017A0179121218AC90018016
:100F920074FFF0A37422F0A3745CF0A374FFF0A3B7
:100FA2007422F0A374E3F07B017A01791A1218AC6F
:100FB200900120E4F0A3743CF0A37403F0A374E75F
:100FC200F0E4900124F0F58EF58A758CCFD28CD2A4
:100FD200A9758921758BFD758DFD759850F587D2A0
:100FE200AFD28ED2ACFE7F69FD7B017A00799E1270
:100FF20017AD7E007F697D007B017A00793512177B
:10100200ADC2A7122EBC121BAC900000E0640160BE
:1010120003021101F0900127E0D3940074809480C0
:1010220050030210FCA3E0643A60030210FC90013A
:1010320027E02426F582E43401F583E0640D6003A1
:101042000210FC900127E02427F582E43401F583A5
:10105200E0640A60030210FC7B017A017929122BF9
:101062009990010BE06F60030210FC900127E024CD
:1010720024F9E43401FA7B01122B99C0077B017A2F
:10108200017929900127E024FBFDE434FFFC122BB7
:101092005CAE07D007EE6F70617B017A01792B128B
:1010A2002B9990016CEFF014601724FE601324FE5C
:1010B200600F14600C24DB70109001067406F0803F
:1010C200159001067408F0800D90016CE0FD7F011F
:1010D200121E4F02100B900106E0FF7E0078A27CE8
:1010E200007D017B017A01792D12155990016CE086
:1010F200FF7B017A0079A2120026E4900127F0908A
:101102000169E004F07006900168E004F0C3900108
:1011120069E094F4900168E094015003021317E42B
:10112200F0A3F07F80122EE7E490015EF090015E62
:10113200E0FFC39408748094805011EF9022B5931D
:10114200FF122EF590015EE004F080E17F90122EF6
:10115200E7E490015EF090015EE0FFC394087480C2
:1011620094805011EF9022BD93FF122EF590015EF4
:10117200E004F080E17F88122EE7E490015EF090B7
:10118200015EE0FFC39408748094805011EF9022B6
:10119200C593FF122EF590015EE004F080E17F849A
:1011A200122EE7900001E0FEA3E0FF7C037DE8122F
:1011B20015D7EF2430FF122EF5900001E0FEA3E0D8
:1011C200FF7C037DE81215D77E007F64CFCDCFCEA2
:1011D200CCCE1215D7EF2430FF122EF57F2E122E11
:1011E200F5900001E0FEA3E0FF7C007D641215D7BC
:1011F2007E007F0ACFCDCFCECCCE1215D7EF2430D2
:10120200FF122EF5900001E0FEA3E0FF7C007D0AB4
:101212001215D7ED2430FF122EF57F4D122EF57FD9
:1012220050122EF57F61122EF57F94122EE7900157
:1012320009E0FEA3E0FF7C007D641215D7EF2430A5
:10124200FF122EF5900109E0FEA3E0FF7C007D6411
:101252001215D77E007F0ACFCDCFCECCCE1215D7B6
:10126200EF2430FF122EF57F2E122EF5900109E0A9
:10127200FEA3E0FF7C007D0A1215D7ED2430FF1299
:101282002EF57F96122EE77F20122EF57F4D122E1D
:10129200F57F50122EF57F61122EF57F8C122EE70C
:1012A20090015CE0FEA3E0FF7C037DE81215D77E8F
:1012B200007F64CFCDCFCECCCE1215D7EF2430FF36
:1012C200122EF590015CE0FEA3E0FF7C007D64122B
:1012D20015D77E007F0ACFCDCFCECCCE1215D7EF59
:1012E2002430FF122EF57F2E122EF590015CE0FEC7
:1012F200A3E0FF7C007D0A1215D7ED2430FF122EE9
:10130200F57F6D122EF57F6C122EF57F2F122EF5C2
:101312007F6D122EF5122C4EEF24F560151460200D
:1013220014601414602714602E2405703312098C83
:10133200802E122075802912257D900109E48007F4
:1013420012243290015CEEF0A3EFF08013122E27EC
:10135200E4900124F08009122E069001247401F019
:10136200900167E004F07006900166E004F0C3901B
:101372000167E09464900166E09400500302140B4C
:10138200E4F0A3F0900160E0F8A3E0F9A3E0FAA38F
:10139200E0FBC000C001C002C003122CA6E4FCFDA9
:1013A200D003D002D001D000EB2FFFEA3EFEED3990
:1013B200FDEC38FC900160121770900165E004F0BA
:1013C2007006900164E004F0900164E0FEA3E0FF87
:1013D200C39432EE94004031AB07AA06E4F9F890C8
:1013E2000160E0FCA3E0FDA3E0FEA3E0FF1216CD46
:1013F200900001EEF0A3EFF090016012177C000064
:101402000000E4900164F0A3F0900124E064016024
:101412000302100B90015FE0FF7E006401700E90EA
:10142200016BE004F0700690016AE004F0EF4E7088
:1014320028900001E0FEA3E0FF7C007D0A1215D790
:10144200C390010AE09F900109E09E500C122E27E2
:1014520090015F7401F002100B90015FE064016083
:101462000302100BC390016BE0941090016AE094A8
:1014720027500302100B122E06E490015FF0900138
:071482006AF0A3F002100B59
:102CA600122D49EFD394037480948040051F1F1F93
:102CB6008002E4FFE4FCFDFE90016D1217709001A6
:102CC6006DE0FCA3E0FDA3E0FEA3E0FFE47B827AD7
:102CD60005F9F812164290016D121770E47BFFFA9F
:102CE600F9F890016DE0FCA3E0FDA3E0FEA3E0FF90
:032CF6000216CDF6
:10257D00E490016EF0900170F0A3F07F98122EE7B9
:10258D007F50122EF57F73122EF57F65122EF57F7B
:10259D0074122EF57F94122EE77F20122EF57F20D8
:1025AD00122EF57F20122EF57F20122EF57F94121C
:1025BD002EE790016EE0D3940274809480507812CF
:1025CD002BF690016FEFF0C3940A7480948050E263
:1025DD00E02430FF122EF590016EE014602014609F
:1025ED003B2402704990016FE075F064A4FFAEF0DA
:1025FD00900171E02FF0900170E03EF0803090017D
:10260D006FE075F00AA4FFAEF0900171E02FF0902D
:10261D000170E03EF07F2E122EF5801290016FE0DA
:10262D00FF900171E02FF0900170E03400F0900107
:10263D006EE004F00225BF900120E0FEA3E0FF90C4
:10264D000170E0FCA3E0FDD39FEC9E503190010999
:10265D00ECF0A3EDF07F007E80122DE5900109E0F6
:10266D00FD7F007E80122DC1900109A3E0FD7F0149
:10267D007E80122DC17D057F98122D9B80297F981C
:10268D00122EE7E490016DF090016DE0FFD39404FC
:10269D00748094805011EF9022CD93FF122EF590FF
:0D26AD00016DE004F080E1900109A3E0FF61
:0126BA0022FD
:10243200E490016EF0900170F0A3F07F98122EE705
:102442007F4C122EF57F73122EF57F65122EF57FCB
:1024520074122EF57F8C122EE77F20122EF57F202C
:10246200122EF57F20122EF57F20122EF57F8C1270
:102472002EE790016EE0D39402748094805078121B
:102482002BF690016FEFF0C3940A7480948050E2AF
:10249200E02430FF122EF590016EE01460201460EB
:1024A2003B2402704990016FE075F064A4FFAEF026
:1024B200900171E02FF0900170E03EF080309001C9
:1024C2006FE075F00AA4FFAEF0900171E02FF0907A
:1024D2000170E03EF07F2E122EF5801290016FE027
:1024E200FF900171E02FF0900170E03400F0900154
:1024F2006EE004F0022474900122E0FEA3E0FF905B
:102502000170E0FCA3E0FDD39FEC9E503C90015C87
:10251200ECF0A3EDF07F007E82122DE590015CE0ED
:10252200FD7F007E82122DC190015CA3E0FD7F0140
:102532007E82122DC190015CE0FEA3E0FF1226BB59
:102542007D057F98122D9B80297F98122EE7E490BB
:10255200016DF090016DE0FFD3940474809480507B
:1025620011EF9022CD93FF122EF590016DE004F051
:0A25720080E190015CE0FEA3E0FFB1
:01257C00223C
:052D9B00900172EDF053
:102DA000122EE7E4900173F0900172E0FFA3E0D3EC
:102DB0009F500D7F20122EF5900173E004F080E803
:012DC00022F0
:101BAC007F80122EE7E4900193F0900193E0FFC345
:101BBC009408748094805011EF9022B593FF122EEC
:101BCC00F5900193E004F080E17F90122EE7E49011
:101BDC000193F0900193E0FFC394087480948050BB
:101BEC0011EF9022BD93FF122EF5900193E004F0BB
:101BFC0080E17F96122EE77F20122EF57F4D122E5C
:101C0C00F57F50122EF57F61122EF57F88122EE78C
:101C1C00E4900193F0900193E0FFC39408748094D6
:101C2C00805011EF9022C593FF122EF5900193E096
:101C3C0004F080E17F8E122EE77F6D122EF57F6C03
:101C4C00122EF57F2F122EF57F6D122EF57F94122A
:101C5C002EE77F007E80122E48EF900109F0A3E45E
:101C6C00F07F017E80122E48900109E0FEA3E04F28
:101C7C00FF900109EEF0FEA3EFF04E6015900120ED
:101C8C00E0FEA3E0FFD390010AE09F900109E09EE3
:101C9C00402F900120E0FFA3E0900109CFF0A3EFCB
:101CAC00F07F007E80122DE5900109E0FD7F007E23
:101CBC0080122DC1900109A3E0FD7F017E80122DC1
:101CCC00C1900109E0FEA3E0FF7C007D641215D7F2
:101CDC00EF2430FF122EF5900109E0FEA3E0FF7C0B
:101CEC00007D641215D77E007F0ACFCDCFCECCCE2F
:101CFC001215D7EF2430FF122EF57F2E122EF590F1
:101D0C000109E0FEA3E0FF7C007D0A1215D7ED244B
:101D1C0030FF122EF57F8C122EE77F007E82122E62
:101D2C0048EF90015CF0A3E4F07F017E82122E4814
:101D3C0090015CE0FEA3E04FFF90015CEEF0FEA38F
:101D4C00EFF04E6015900122E0FEA3E0FFD390016E
:101D5C005DE09F90015CE09E402F900122E0FFA38C
:101D6C00E090015CCFF0A3EFF07F007E82122DE5B6
:101D7C0090015CE0FD7F007E82122DC190015CA37E
:101D8C00E0FD7F017E82122DC190015CE0FEA3E09C
:101D9C00FF7C037DE81215D77E007F64CFCDCFCEBC
:101DAC00CCCE1215D7EF2430FF122EF590015CE04B
:101DBC00FEA3E0FF7C007D641215D77E007F0ACF66
:101DCC00CDCFCECCCE1215D7EF2430FF122EF57F0F
:101DDC002E122EF590015CE0FEA3E0FF7C007D0A44
:101DEC001215D7ED2430FF122EF57F9E122EE77FB1
:101DFC0053122EF57F54122EF57F4F122EF57F5075
:101E0C00122EF57F007E84122E4890010BEFF060AD
:101E1C0009D3942074809480401990010B7401F0C4
:101E2C007F007E84122DE590010BE0FD7F007E8407
:101E3C00122DC17F01122ED590015CE0FEA3E0FFB4
:031E4C000226BBB0
:10098C00E490016FF0A3F0A3F0A3F0A3F0A3F09018
:10099C0001777486F0A3E4F0C2AF7F01122EE790CA
:1009AC00016D74FFF090016DC3748094805005E06C
:1009BC0014F080F190015CE0FEA3E0FF7C007D0A66
:1009CC001215D7ED4C7003020A827F80122EE7E4D9
:1009DC0090016DF090016DE0FFC3940474809480DD
:1009EC005011EF9023E293FF122EF590016DE0046D
:1009FC00F080E17F90122EE7E490016DF090016D94
:100A0C00E0FFC3940C748094805011EF9023E69314
:100A1C00FF122EF590016DE004F080E17F88122E1C
:100A2C00E7E490016DF090016DE0FFC3940A7480CF
:100A3C0094805011EF9023F293FF122EF590016DDC
:100A4C00E004F080E17F8B122EE77FCA122EF57F37
:100A5C00FD122EF57F02122ED57F01122EE790018A
:100A6C006D74FFF090016DC3748094805005E01498
:100A7C00F080F1020F1C7F82122EE7E490016DF0E2
:100A8C0090016DE0FFC39408748094805011EF9036
:100A9C0023B293FF122EF590016DE004F080E17FFC
:100AAC0090122EE7E490016DF090016DE0FFC3947D
:100ABC0008748094805011EF9023BA93FF122EF596
:100ACC0090016DE004F080E17F88122EE7E4900144
:100ADC006DF090016DE0FFC3940874809480501108
:100AEC00EF9023C293FF122EF590016DE004F0807D
:100AFC00E17F95122EE790015CE0FEA3E0FF7C0005
:100B0C007D641215D7EF2430FF122EF590015CE0B6
:100B1C00FEA3E0FF7C007D641215D77E007F0ACF18
:100B2C00CDCFCECCCE1215D7EF2430FF122EF57FC1
:100B3C002E122EF590015CE0FEA3E0FF7C007D0AF6
:100B4C001215D7ED2430FF122EF57F8D122EE79063
:100B5C00016FE0D39403748094804003020C47121D
:100B6C002BF690016EEFF0640E7003020F02C3EFD0
:100B7C00940A748094804003020C06E02430FF1227
:100B8C002EF590016FE014602214603D1460532424
:100B9C0003706190016EE0FF7E007C037DE812150E
:100BAC00C5900173EEF0A3EFF0804990016EE075F3
:100BBC00F064A4FFAEF0900174E02FF0900173E0AC
:100BCC003EF07F2E122EF5802B90016EE075F00A10
:100BDC00A4FFAEF0900174E02FF0900173E03EF0B2
:100BEC00801290016EE0FF900174E02FF090017381
:100BFC00E03400F090016FE004F090016EE0640CC2
:100C0C006003020B5B7F8D122EE77F20122EF57F87
:100C1C0020122EF57F20122EF57F20122EF57F202C
:100C2C00122EF57F20122EF57F8D122EE7E4900107
:100C3C006FF0900173F0A3F0020B5BE490016DF088
:100C4C0090016DE0FFC3946474809480505EEF75E6
:100C5C00F002A42400FFE5F03486FE900177F0A3A7
:100C6C00EFF0122E48EF900179F0A3E4F0900178A8
:100C7C00E02401FF900177E03400FE122E48900131
:100C8C007AE02FF0900179E03400F0E0FEA3E0FF71
:100C9C0090016DE025E0247BF582E43401F583EED0
:100CAC00F0A3EFF090016DE004F0809490015CE013
:100CBC00FEA3E0FFC39401EE94004016EF24FFFF67
:100CCC00EE34FFFE7C007D0A1215D7900170EFF018
:100CDC008005E4900170F090015CE0FEA3E0FF7CE5
:100CEC00007D0A1215C5900171EEF0A3EFF0900192
:100CFC0070E025E0247BF582E43401F583E0FEA36B
:100D0C00E0FFE4FD90018F121770900173E0FEA3D9
:100D1C00E0FFE4FCFD90018FE0F8A3E0F9A3E0FA1A
:100D2C00A3E0FB12164290018F121770900171E034
:100D3C00FEA3E0FBAA06E4F9F890018FE0FCA3E027
:100D4C00FDA3E0FEA3E0FF1216CD900175EEF0A31B
:100D5C00EFF0900170E025E0247BF582E43401F59E
:100D6C0083EEF0A3EFF07F98122EE7900175E0FE72
:100D7C00A3E0FF7C277D101215D7EF2430FF122E35
:100D8C00F5900175E0FEA3E0FF7C277D101215D7CE
:100D9C007E037FE8CFCDCFCECCCE1215D7EF24304B
:100DAC00FF122EF5900175E0FEA3E0FF7C037DE8B9
:100DBC001215D77E007F64CFCDCFCECCCE1215D7F7
:100DCC00EF2430FF122EF5900175E0FEA3E0FF7CBE
:100DDC00007D641215D77E007F0ACFCDCFCECCCE4E
:100DEC001215D7EF2430FF122EF5900175E0FEA3FB
:100DFC00E0FF7C007D0A1215D7ED2430FF122EF592
:100E0C00122BF690016EEFF0640F6003020EBBFF25
:100E1C007E86122DE5E490016DF090016DE0C39497
:100E2C0064748094805054E0FD75F002A42400FF9B
:100E3C00E5F03486FE900177F0A3EFF0ED25E02489
:100E4C007BF582E43401F583E0FDA3E0900179CDDC
:100E5C00F0A3EDF0900179E0FD122DC1900178E046
:100E6C002401FF900177E03400FE900179A3E0FDAE
:100E7C00122DC190016DE004F0809F7F98122EE737
:100E8C00E490016DF090016DE0FFC3940A748094BE
:100E9C00805011EF9023CA93FF122EF590016DE054
:100EAC0004F080E17F02122ED590016E7414F09044
:100EBC00016EE0640E70347F98122EE7E490016DA1
:100ECC00F090016DE0FFC3940E748094805011EF8C
:100EDC009023D493FF122EF590016DE004F080E185
:100EEC007F05122ED590016E7414F090016EE064A3
:100EFC00146003020E0C7F01122EE790016D74FF3B
:100F0C00F090016DC3748094805005E014F080F172
:050F1C00121BACD2AF76
:010F210022AD
:1020750090016F7486F0A3E4F07F01122EE79001C2
:102085006D74FFF090016DC3748094805005E01469
:10209500F080F17F92122EE7E490016DF090016DD2
:1020A500E0FFC3940A748094805011EF9023FC9351
:1020B500FF122EF590016DE004F080E17F98122E5D
:1020C500E7E490016DF090016DE0FFC39406748024
:1020D50094805011EF90240693FF122EF590016D18
:1020E500E004F080E17F9D122EE7E490016DF09011
:1020F500016DE0FFC39406748094805011EF902425
:102105000C93FF122EF590016DE004F080E1122B87
:10211500F690016EEFF0640F60030221DEFF7E860C
:10212500122DE5E490016DF090016DE0C3946474A7
:102135008094805056E0FD75F002A42400FFE5F080
:102145003486FE90016FF0A3EFF0ED25E024EAF56B
:1021550082E43422F583E493FD740193900171CDFB
:10216500F0A3EDF0900171E0FD122DC1900170E03A
:102175002401FF90016FE03400FE900171A3E0FDA2
:10218500122DC190016DE004F0809D7F01122EE7B4
:1021950090016D74FFF090016DC3748094805005BB
:1021A500E014F080F17F90122EE7E490016DF0903D
:1021B500016DE0FFC3940E748094805011EF90245C
:1021C5001293FF122EF590016DE004F080E17F057A
:1021D500122ED590016E7415F090016EE0640E70AC
:1021E5004E7F01122EE790016D74FFF090016DC3D3
:1021F500748094805005E014F080F17F90122EE7F2
:10220500E490016DF090016DE0FFC3940E7480942D
:10221500805011EF90242093FF122EF590016DE070
:1022250004F080E17F05122ED590016E7415F090B3
:10223500016EE0641560030221137F01122EE79001
:10224500016D74FFF090016DC3748094805005E0BA
:0722550014F080F1021BAC44
:0E00260090016DEFF0A3EBF0A3EAF0A3E9F078
:1000340078717C017D017BFF7A24792E7E007F021A
:10004400121559E4900173F0A3F0A3F0A3F0A3F008
:1000540090016DE014700302084B24FE7003020447
:10006400C224FE70030206F31470030201A824DB09
:10007400600302098B90017B74FFF0A37422F0A348
:10008400745FF090016EE0FBA3E0FAA3E0F912289C
:10009400E2E94A4B700302098B90018074FFF0A3DC
:1000A4007422F0A37466F090010BE0FF900183E4E6
:1000B400F0A3EFF07B017A0079351218AC9001803F
:1000C40074FFF0A37422F0A37466F090016DE0FF56
:1000D400900183E4F0A3EFF07B017A0079371218E2
:1000E400AC90009D742CF078397C007D017BFF7A04
:1000F40022796B7E007F10121559900173E0241051
:10010400F0E02439F9E43400A801FC7D017B017A94
:1001140001790C7E007F06121559900173E02406C4
:10012400F0E02439F9E43400A801FC7D017BFF7A76
:1001340022797C7E007F04121559900173E0240417
:10014400F0E02439F9E43400A801FC7D017B017A54
:100154000179127E007F08121559900173E024087A
:10016400F0E02439F9E43400A801FC7D017BFF7A36
:100174002279817E007F04121559900173E02404D2
:10018400F0E02439F9E43400A801FC7D017B017A14
:1001940001791A7E007F06121559900173E0240636
:1001A400F002090B90016EE0FBA3E0FAA3E0F91260
:1001B40028051227ED900176EEF0A3EFF09001747C
:1001C400E07004A3E0640160030202DD900176E0C4
:1001D400FEA3E0FFD39400EE94005003020978D309
:1001E400EF9420EE9400400302097890010BE0FFA5
:1001F400900176E07003A3E06F700302098B7F0027
:100204007E84122DE5900176A3E0FD7F007E8412AA
:100214002DC190018074FFF0A37422F0A37466F0E2
:1002240090010BE0FF900183E4F0A3EFF07B017AEF
:100234000079351218AC90018074FFF0A37422F099
:10024400A37466F090016DE0FF900183E4F0A3EFE6
:10025400F07B017A0079371218AC90009D7408F095
:1002640090018074FFF0A37422F0A37489F07B01E1
:100274007A0079391218AC90018074FFF0A37422CB
:10028400F0A3748EF0900176E0FFA3E0900183CF99
:10029400F0A3EFF07B017A00793D1218AC122B2603
:1002A400900183EFF090018074FFF0A37422F0A317
:1002B4007466F07B017A0179711218AC900126E022
:1002C4002403F9E43400A8017A017971122AAE906A
:1002D4000176A3E090010BF022900174E07004A376
:1002E400E0640260030203CA900176E0FEA3E0FF2B
:1002F400D39400EE940050030203C7900120E0FC65
:10030400A3E0FDD3EF9DEE9C40030203C7900109D7
:10031400EEF0A3EFF07F007E80122DE5900109E05E
:10032400FD7F007E80122DC1900109A3E0FD7F01B5
:100334007E80122DC190018074FFF0A37422F0A37B
:100344007466F090010BE0FF900183E4F0A3EFF0FA
:100354007B017A0079351218AC90018074FFF0A308
:100364007422F0A37466F090016DE0FF900183E4C1
:10037400F0A3EFF07B017A0079371218AC90009D5E
:100384007408F090018074FFF0A37422F0A37493B6
:10039400F07B017A0079391218AC90018074FFF077
:1003A400A37422F0A3748EF0900109E0FFA3E090FF
:1003B4000183CFF0A3EFF07B017A00793D1218ACF2
:1003C40002090B020978900174E07004A3E064034D
:1003D4006003020981900176E0FEA3E0FFD394005C
:1003E400EE940050030204BF900122E0FCA3E0FD60
:1003F400D3EF9DEE9C40030204BF90015CEEF0A39A
:10040400EFF07F007E82122DE590015CE0FD7F001D
:100414007E82122DC190015CA3E0FD7F017E8212D9
:100424002DC190015CE0FEA3E0FF1226BB90018089
:1004340074FFF0A37422F0A37466F090010BE0FF44
:10044400900183E4F0A3EFF07B017A007935121870
:10045400AC90018074FFF0A37422F0A37466F09052
:10046400016DE0FF900183E4F0A3EFF07B017A00DB
:1004740079371218AC90009D7408F090018074FFD5
:10048400F0A37422F0A37498F07B017A00793912F6
:1004940018AC90018074FFF0A37422F0A3748EF062
:1004A40090015CE0FFA3E0900183CFF0A3EFF07B29
:1004B400017A00793D1218AC02090B020978900107
:1004C4006EE0FBA3E0FAA3E0F91228051227ED90F1
:1004D4000176EEF0A3EFF0900174E07004A3E06401
:1004E40002600302058A900176E07004A3E06401CF
:1004F400600302058790018074FFF0A37422F0A3C7
:100504007466F090010BE0FF900183E4F0A3EFF038
:100514007B017A0079351218AC90018074FFF0A346
:100524007422F0A37466F090016DE0FF900183E4FF
:10053400F0A3EFF07B017A0079371218AC90009D9C
:100544007406F090018074FFF0A37422F0A3749DEC
:10055400F07B017A0079391218AC90018074FFF0B5
:10056400A37422F0A3748EF0900109E0FFA3E0903D
:100574000183CFF0A3EFF07B017A00793B1218AC32
:1005840002090B020978900174E07004A3E064038B
:100594006003020639900176E07004A3E064016010
:1005A4000302063690018074FFF0A37422F0A37452
:1005B40066F090010BE0FF900183E4F0A3EFF07B81
:1005C400017A0079351218AC90018074FFF0A3749D
:1005D40022F0A37466F090016DE0FF900183E4F0D3
:1005E400A3EFF07B017A0079371218AC90009D7468
:1005F40006F090018074FFF0A37422F0A3749DF0C0
:100604007B017A0079391218AC90018074FFF0A351
:100614007422F0A3748EF090015CE0FFA3E09001DB
:1006240083CFF0A3EFF07B017A00793B1218AC0280
:10063400090B020978900174E07004A3E06404607B
:10064400030206F0900176E07004A3E06401600305
:100654000206ED90018074FFF0A37422F0A3746687
:10066400F090010BE0FF900183E4F0A3EFF07B0135
:100674007A0079351218AC90018074FFF0A37422CB
:10068400F0A37466F090016DE0FF900183E4F0A3A1
:10069400EFF07B017A0079371218AC90009D740654
:1006A400F090018074FFF0A37422F0A3749DF07B9A
:1006B400017A0079391218AC90018074FFF0A374A8
:1006C40022F0A3748EF0900001E0FEA3E0FF7C0012
:1006D4007D0A1215D7900183EEF0A3EFF07B017A27
:1006E40000793B1218AC02090B02097802098190C7
:1006F400016EE0FBA3E0FAA3E0F91228051227ED4E
:10070400900176EEF0A3EFF0900174E07004A3E0A2
:1007140064016003020848900176E0F47002A3E0EB
:1007240060030207B1122E069001247401F09001B7
:100734008074FFF0A37422F0A37466F090010BE0C0
:10074400FF900183E4F0A3EFF07B017A0079351286
:1007540018AC90018074FFF0A37422F0A37466F0C7
:1007640090016DE0FF900183E4F0A3EFF07B017A48
:100774000079371218AC90009D7408F090018074D1
:10078400FFF0A37422F0A37489F07B017A00793915
:100794001218AC90018074FFF0A37422F0A374A02B
:1007A400F07B017A00793D1218AC02090B900176B6
:1007B400E07002A3E06003020845122E27E49001D2
:1007C40024F090018074FFF0A37422F0A37466F007
:1007D40090010BE0FF900183E4F0A3EFF07B017A3A
:1007E4000079351218AC90018074FFF0A37422F0E4
:1007F400A37466F090016DE0FF900183E4F0A3EF31
:10080400F07B017A0079371218AC90009D7408F0DF
:1008140090018074FFF0A37422F0A37489F07B012B
:100824007A0079391218AC90018074FFF0A3742215
:10083400F0A374A5F07B017A00793D1218AC02098B
:100844000B02097802098190016EE0FBA3E0FAA390
:10085400E0F91228051227ED900176EEF0A3EFF0EF
:10086400900174E07004A3E06401600302098190C4
:100874000176E07004A3E06401600302097890014A
:100884008074FFF0A37422F0A37466F090010BE06F
:10089400FF900183E4F0A3EFF07B017A0079351235
:1008A40018AC90018074FFF0A37422F0A37466F076
:1008B40090016DE0FF900183E4F0A3EFF07B017AF7
:1008C4000079371218AC90009D7404F09001807484
:1008D400FFF0A37422F0A374AAF07B017A007939A3
:1008E4001218AC90018074FFF0A37422F0A3746614
:1008F400F0900124E0FF900183E4F0A3EFF07B018A
:100904007A00793B1218AC122B26900183EFF090F9
:10091400018074FFF0A37422F0A37466F07B017A63
:100924000179711218AC900126E02403F9E4340033
:10093400A801FC7D017B017A0179717E007F02129E
:100944001559900126E02402F0E02403F9E4340070
:10095400A801FC7D017BFF7A2279867E007F02124A
:100964001559900126E02402F07B017A007903E016
:10097400FD022AE990016DE0FD7F03800790016D7F
:07098400E0FD7F02121E4F8F
:01098B002249
:03002300022CF9B3
:102CF900C0E0C083C082C0D075D000C006C0073014
:102D09009831C298E599547FFF900127E0FE04F0BD
:102D190074282EF582E43401F583EFF0900127E061
:102D2900C39432748094804002E4F0758A00758CF3
:102D3900CFD28CD007D006D0D0D082D083D0E03289
:03000B0002000EE2
:10000E00C0E0C083C082C28C9000007401F0D08228
:05001E00D083D0E032A8
:102AAE00FC7D017B017E007F02121559900126E00C
:102ABE002402F0E02403F9E43400A801FC7D017B3C
:102ACE00FF7A2279867E007F02121559900126E048
:0B2ADE002402F07B017A007903E0FD88
:0B2AE90090017DEBF0A3EAF0A3E9F000
:102AF400C2ACE4FFEFC39D502690017DE0FBA3E050
:102B0400FAA3E0F98F8275830012159830D004D2AD
:102B14009B8002C29BF5993099FDC2990F80D5D252
:012B2400AC04
:012B2500228D
:081E4F00900178EFF0A3EDF023
:101E5700787A7C017D017BFF7A2479307E007F02CE
:101E6700121559E490017CF0900178E064017061EB
:101E770090018074FFF0A37422F0A37466F09001C0
:101E87000BE0FF900183E4F0A3EFF07B017A007988
:101E9700351218AC90018074FFF0A37422F0A3747C
:101EA70066F0900179E02480FEE433900183F0A38B
:101EB700CEF07B017A0079371218AC90009D74023E
:101EC700F090018074FFF0A37422F0A374AA02209B
:101ED70038900178E064026003021FBBA3E014603E
:101EE7007324FE606F24FE606B14606824DB60035C
:101EF70002207490018074FFF0A37422F0A374662B
:101F0700F090010BE0FF900183E4F0A3EFF07B0179
:101F17007A0079351218AC90018074FFF0A374220F
:101F2700F0A37466F0900179E02480FEE433900119
:101F370083F0A3CEF07B017A0079371218AC9000BA
:101F47009D7404F090018074FFF0A37422F0A374D1
:101F5700AD02203890018074FFF0A37422F0A374BF
:101F670066F090010BE0FF900183E4F0A3EFF07BB4
:101F7700017A0079351218AC90018074FFF0A374D0
:101F870022F0A37466F0900179E02480FEE4339098
:101F97000183F0A3CEF07B017A0079371218AC9059
:101FA700009D7402F090018074FFF0A37422F0A3E7
:101FB700749D807D900178E064036003022074A320
:101FC700E024FD600E24FE600A1460072405600308
:101FD70002207490018074FFF0A37422F0A374664A
:101FE700F090010BE0FF900183E4F0A3EFF07B0199
:101FF7007A0079351218AC90018074FFF0A374222F
:10200700F0A37466F0900179E02480FEE433900138
:1020170083F0A3CEF07B017A0079371218AC9000D9
:102027009D7402F090018074FFF0A37422F0A374F2
:10203700B2F07B017A0079391218AC122B26900185
:1020470083EFF090018074FFF0A37422F0A374660D
:10205700F07B017A01797A1218AC900126E024030B
:0D206700F9E43400A8017A01797A122AAE5A
:012074002249
:102B990012157FFFC39430400CEFD394395006EFE0
:102BA90024D0FD801312157FFFC39441400AEFD34F
:102BB90094465004EF24C9FD900001121598FFC3F3
:102BC9009430400CEFD394395006EF24D0FE801690
:102BD900900001121598FFC39441400AEFD394461F
:0C2BE9005004EF24C9FEEDC454F04EFF70
:012BF50022BD
:1027ED00900174EEF0A3EFF090016EE0FBA3E0FA20
:0827FD00A3E02404F9E43AFA18
:1028050012157FFFC39430400BEFD394395005EF79
:1028150024D0801212157FFFC39441400DEFD3944D
:10282500465007EF24C9900178F0900001121598E1
:10283500FFC39430400BEFD394395005EF24D0807B
:1028450015900001121598FFC39441400DEFD394E4
:10285500465007EF24C9900179F0900002121598AF
:10286500FFC39430400BEFD394395005EF24D0804B
:1028750015900002121598FFC39441400DEFD394B3
:10288500465007EF24C990017AF09000031215987D
:10289500FFC39430400BEFD394395005EF24D0801B
:1028A50015900003121598FFC39441400DEFD39482
:1028B500465007EF24C990017BF0900179E0FC9028
:1028C5000178E0C454F04CFCE490017AE075F01016
:0C28D500A4FFE5F04CFEA3E0FDEF4DFF7A
:0128E10022D4
:102B2600900003743AF090009DE02404FFE433FE25
:102B360078047C007D017B017A0079351215599065
:102B4600009DE02405900126F07B017A007904249B
:062B5600FFFDE434FFFC6A
:102B5C0090017DEBF0A3EAF0A3E9F0A3ECF0A3ED78
:012B6C00F078
:102B6D00E4FF90018074FFF5F012162C45F060170C
:102B7D0090017DE0FBA3E475F00112162CA9F0FA8B
:0B2B8D0012157F2FFF80DBEFF404FF28
:012B9800221A
:0C2F0300C2AF53E71885E7E743E78022E0
:092F0F0053E77FE4F5E6D2AF229E
:102E4800AD07AC06ECF5E3EDF5E453E5F843E50131
:102E5800122F0375E64675E6B900122F0FAFE2226E
:102DE500E4FDEE54FEFCF5E3E4F5E453E5F843E5D4
:102DF50003122F0375E64675E6B900122F0F7F0102
:012E050022AA
:102DC100AB07AA06EAF5E3EBF5E453E5F843E502C0
:102DD100AF058FE2122F0375E64675E6B900122F93
:042DE1000F7F01223D
:072EA300C2A3D2A47580FF59
:102EAA00E4780DF6D2A5780DA680C2A5E654807006
:012EBA00F324
:012EBB0022F4
:0E2EE700122EA3C2A5C2A48F80D2A5C2A5221E
:0E2EF500122EA3D2A3C2A48F80D2A5C2A52202
:102EBC007F30122EE77F0F122EE77F01122EE77F55
:092ECC0006122EE77F0C022EE72E
:102E0600E4FBFD7F52122A2D7F9E122EE77F2012B1
:102E16002EF57F52122EF57F55122EF57F4E022E7D
:012E2600F5B6
:102E2700E4FBFD7F53122A2D7F9E122EE77F53125C
:102E37002EF57F54122EF57F4F122EF57F50022E5E
:012E4700F595
:0826BB00900194EEF0A3EFF092
:1026C3009001977486F0A3E4F0C3EF9401EE9400B5
:1026D300401C900195E024FFFF900194E034FFFE3D
:1026E3007C007D0A1215D7900196EFF08005E490E7
:1026F3000196F0900196E075F002A4FFAEF0900110
:1027030098E02FF0900197E03EF0E0FEA3E0FF1287
:102713002E48EF900199F0A3E4F0900198E0240192
:10272300FF900197E03400FE122E4890019AE02FAB
:10273300F0900199E03400F0900196E02401FFE469
:1027430033FE900199E0FCA3E0FD1215C5E4FCFD06
:1027530090019D12177090019DE0FCA3E0FDA3E0A2
:10276300FEA3E0FFE47B0AFAF9F812164290019DFA
:1027730012177090019DE0FCA3E0FDA3E0FEA3E02F
:10278300FFC006C007900194E0FEA3E0FBAA06E4A5
:10279300F9F8D007D0061216CD90019D121770E4F8
:1027A3007FFF7EFFFDFC90019DE0F8A3E0F9A3E02D
:1027B300FAA3E0FBD312175F501390019DA3A3E08C
:1027C300FFA3E090019BCFF0A3EFF0800874FF908C
:1027D300019BF0A3F090019BE0FCA3E0FDECFFAEB6
:0A27E30005EDAD07FB7F46022A2D2D
:0B2A2D009001A1EFF0A3EDF0A3EBF08F
:102A3800C2A2C2A2C2A2D2A2E4FF122E867F64EF73
:102A4800D394007480948050031F80F39001A1E018
:102A5800FF122E867F64EFD3940074809480500315
:102A68001F80F39001A2E0FF122E867F64EFD394BB
:102A7800007480948050031F80F39001A3E0FF123C
:102A88002E867F64EFD394007480948050031F8057
:102A9800F3E4FF122E867F64EFD394007480948051
:052AA80050031F80F344
:012AAD002206
:102D4900D2B2D2B5C2B37807D8FE007400C3C2B2FA
:102D59000000A2B5337907D2B300C2B300A2B533DC
:0B2D6900D9F5D2B300C2B3D2B2FF22F2
:102ED500EF600E7A14795F7800D8FED9FADAF6DF5A
:022EE500EF22DA
:102BF6007BF77F0074F0F590E590B4F003022BF6B6
:102C06007E00DEFEE590B4F003022BF600EBF590B5
:102C1600E590FCD37D0433500C0FDDFAEBD313FBA8
:102C260040EB022BF6D2A77E3C7DF8DDFEDEFAC233
:102C3600A7E5906C60FB122C410022783C7E067D55
:082C4600F8DDFEDEFAD8F622EB
:102C4E007BF77F0074F0F590E590B4F003022C97BB
:102C5E007E00DEFEE590B4F003022C9700EBF590BB
:102C6E00E590FCD37D0433500C0FDDFAEBD313FB50
:102C7E0040EB022C97D2A77E3C7DF8DDFEDEFAC239
:102C8E00A7E5906C60FB122C990022783C7E067DA5
:082C9E00F8DDFEDEFAD8F62293
:102E8600EFC392A0122E9E7B083392A0122E9EDBD9
:0D2E9600F8D392A0122E9E227ECDDEFE22E9
:030000000229A131
:0C29A100787FE4F6D8FD7581210229E85A
:10148900E709F608DFFA8046E709F208DFFA803E45
:1014990088828C83E709F0A3DFFA8032E309F60832
:1014A900DFFA8078E309F208DFFA807088828C839A
:1014B900E309F0A3DFFA806489828A83E0A3F6084E
:1014C900DFFA805889828A83E0A3F208DFFA804C28
:1014D90080D280FA80C680D4806980F280338010FF
:1014E90080A680EA809A80A880DA80E280CA803368
:1014F90089828A83ECFAE493A3C8C582C8CCC583E0
:10150900CCF0A3C8C582C8CCC583CCDFE9DEE780AF
:101519000D89828A83E493A3F608DFF9ECFAA9F02E
:10152900EDFB2289828A83ECFAE0A3C8C582C8CC84
:10153900C583CCF0A3C8C582C8CCC583CCDFEADE9D
:10154900E880DB89828A83E493A3F208DFF980CCFF
:1015590088F0EF60010E4E60C388F0ED2402B404F8
:101569000050B9F582EB2402B4040050AF2323459F
:0615790082239014D973D7
:10157F00BB010689828A83E0225002E722BBFE026A
:09158F00E32289828A83E493229D
:10159800BB010CE58229F582E5833AF583E0225008
:1015A80006E92582F8E622BBFE06E92582F8E22252
:0D15B800E58229F582E5833AF583E493226C
:1015C500EF8DF0A4A8F0CF8CF0A428CE8DF0A42E3A
:0215D500FE22F4
:1015D700BC000BBE0029EF8DF084FFADF022E4CCF8
:1015E700F875F008EF2FFFEE33FEEC33FCEE9DECC1
:1015F700984005FCEE9DFE0FD5F0E9E4CEFD22ED07
:10160700F8F5F0EE8420D21CFEADF075F008EF2F50
:10161700FFED33FD4007985006D5F0F222C398FD41
:051627000FD5F0EA22DE
:10162C00A3F8E0C5F025F0F0E58215827002158371
:06163C00E0C838F0E822CE
:10164200E88FF0A4CC8BF0A42CFCE98EF0A42CFC47
:101652008AF0EDA42CFCEA8EF0A4CDA8F08BF0A4C5
:101662002DCC3825F0FDE98FF0A42CCD35F0FCEB24
:101672008EF0A4FEA9F0EB8FF0A4CFC5F02ECD39E9
:0F168200FEE43CFCEAA42DCE35F0FDE43CFC2256
:1016910075F008758200EF2FFFEE33FECD33CDCC10
:1016A10033CCC58233C5829BED9AEC99E582984093
:1016B1000CF582EE9BFEED9AFDEC99FC0FD5F0D670
:1016C100E4CEFBE4CDFAE4CCF9A88222B800C1B99A
:1016D1000059BA002DEC8BF084CFCECDFCE5F0CBD8
:1016E100F97818EF2FFFEE33FEED33FDEC33FCEB11
:1016F10033FB10D703994004EB99FB0FD8E5E4F9CC
:10170100FA227818EF2FFFEE33FEED33FDEC33FCB8
:10171100C933C910D7059BE99A4007EC9BFCE99AAC
:10172100F90FD8E0E4C9FAE4CCFB2275F010EF2FF1
:10173100FFEE33FEED33FDCC33CCC833C810D707F1
:101741009BEC9AE899400AED9BFDEC9AFCE899F82C
:0E1751000FD5F0DAE4CDFBE4CCFAE4C8F922BF
:10175F00EB9FF5F0EA9E42F0E99D42F0E89C45F0E0
:01176F002257
:0C177000ECF0A3EDF0A3EEF0A3EFF022EC
:10177C00A8828583F0D083D082121793121793120C
:10178C001793121793E473E493A3C583C5F0C58331
:10179C00C8C582C8F0A3C583C5F0C583C8C582C8B7
:0117AC00221A
:10184700E5082480F582E43401F583E00508229059
:10185700017D300703900180E475F0011218010241
:10186700157F2000E97F2ED2008018EF540F2490B7
:10187700D43440D4FF30040BEF24BFB41A00500314
:101887002461FFE50960021509050CE50C700205E6
:101897000B30070E90017DE475F001121801EF027D
:1018A70017D9022D747403D2078003E4C207F50821
:1018B70090017D121818E4F509F50BF50CE50960A0
:1018C700077F2012188A80F5750AFFC201C200C27D
:1018D70002C203C205C206C208121856FF700D30B5
:1018E70007057F0012189BAF0CAE0B22B4255FC211
:1018F700D5C204121856FF24D0B40A00501A75F046
:101907000A780930D50508B6FF0106C6A426F620D1
:10191700D5047002D20380D924CFB41A00EF500443
:10192700C2E5D204021A9CD20180C6D20080C0D27E
:101937000280BCD2D580BAD20580B47F2012188A23
:101947002002077401B5090040F1121847FF121869
:101957008A0218C4D208D2068095121847FB1218BB
:1019670047FA121847F94A4B7006796D7A1B7BFFC5
:1019770020022EE509602A7E008E827583001215EB
:101987009860060EEE650A70F0C2D5EBC0E0EAC0BB
:10199700E0E9C0E0EE121AE3D0E0F9D0E0FAD0E0D7
:1019A700FB12157FFF60AAEBC0E0EAC0E0E9C0E0E8
:1019B70012188AD0E02401F9D0E03400FAD0E0FB15
:1019C700E50A0460DCD50AD980877BFF7A1A79DFBC
:1019D700D202809C791080027908C206C20880086A
:1019E700D2D5790A8004790AC2D5E50A047002F5CE
:1019F7000AE4FAFDFEFF121847FC7B0820011312C8
:101A07001847FD7B1030000A121847FE121847FFCF
:101A17007B20EC3382D592D55013C3E43000069F68
:101A2700FFE49EFEE42001039DFDE49CFCE4CBF86B
:101A3700C201EC700CCFCECDCCE824F8F870F3805F
:101A470017C3EF33FFEE33FEED33FDEC33FCEB331F
:101A5700FB994002FB0FD8E9EB300105F8D0E0C451
:101A670048B201C0E00AEC4D4E4F78207B0070C2AF
:101A7700EAB50A0040BCC0E0121AE5D0F0D0E02079
:101A87000104C4C0E0C4B201C0F0121873D0F0D58D
:101A9700F0EB0218C412182119615319DB581932D7
:101AA7004C192E4219DF4F19E74419E749194743E3
:081AB70019ED5519D14619D1B2
:101ABF004519D1471B8D5019362D193A2E195D2B0B
:101ACF00193E23195B201B762A18F648000019557A
:101ADF003F3F3F00790AA2D5200314300509B91002
:101AEF00020404B9080104A2D52006025001042003
:101AFF0002689202B509005034C0E07F203003190C
:101B0F007F30A20272067205500F121B3CC202C236
:101B1F0006C205C2087F30800F300503E9C0E0120E
:101B2F00188A300503D0E0F9D0E0B509CC3005179D
:101B3F007F30B9100C12188A7F583004077F7880D5
:101B4F0003B9080312188A3002057F2D02188A7F05
:101B5F00202008F87F2B2006F322920280CF286ED8
:101B6F00756C6C2900D2011218473001F8C2017848
:101B7F000930D50108F60218F62D504349581218AE
:101B8F00472403B405004001E4901B889312187B8F
:0D1B9F00743A12187BD2037509040219DB99
:1028E200900178EBF0A3EAF0A3E9F0A3E0FBA3E008
:1028F200FAA3E0F912157F700302298E900178E0A5
:10290200FBA3E0FAA3E0F912157F700302299A9063
:10291200017BE0F9A3E0FAA3E0A3C9F0A3EAF0A3E4
:10292200E9F0900178A3E0FAA3E0F9900181EBF0DD
:10293200A3EAF0A3E9F090017EE0FBA3E0FAA3E0B2
:10294200F912157FFF6026900181E0FBA3E0FAA354
:10295200E0F912157F6F701590017F75F001121763
:10296200EB900182E475F0011217EB80C990017EB1
:10297200E0FBA3E0FAA3E0F912157F7002800D904C
:102982000179E475F0011217EB0228FE900178E05C
:0F299200FBA3E0FAA3E0F9227B007A0079002290
:1017AD00EF4E6012EF60010EEDBB010B89828A8353
:1017BD00F0A3DFFCDEFA2289F05007F709DFFCA960
:0C17CD00F022BBFEFCF309DFFCA9F022B7
:1029AD00020F22E493A3F8E493A34003F68001F20F
:1029BD0008DFF48029E493A3F85407240CC8C3332B
:1029CD00C4540F4420C8834004F456800146F6DFFA
:1029DD00E4800B0102040810204080902E68E47EF4
:1029ED00019360BCA3FF543F30E509541FFEE493EF
:1029FD00A360010ECF54C025E060A840B8E493A3B6
:102A0D00FAE493A3F8E493A3C8C582C8CAC583CAE0
:102A1D00F0A3C8C582C8CAC583CADFE9DEE780BE98
:012E8500004C
:1017D900BB010689828A83F0225002F722BBFE01EF
:0217E900F322E9
:1017EB00C5F0F8A3E028F0C5F0F8E5821582700289
:0617FB001583E038F02226
:10180100F8E0FBA3A3E0F925F0F0E5821582700270
:071811001583E0FA38F02214
:09181800EBF0A3EAF0A3E9F022D1
:10182100D083D082F8E4937012740193700DA3A356
:1018310093F8740193F5828883E47374029368606A
:06184100EFA3A3A380DF6A
:102D7400EFB40A07740D122D7F740A309811A899C4
:102D8400B8130CC2983098FDA899C298B811F630BF
:072D940099FDC299F5992297
:00000001FF
